:020000040800F2
:1000000080040020010100085F160008D1130008D9
:100010005D160008390600081519000800000000E8
:10002000000000000000000000000000631600084F
:100030003B06000800000000611600086516000875
:100040001B0100081B0100081B0100081B01000820
:100050001B0100081B0100083D0600081B010008E9
:100060001B0100081B0100081B0100081B01000800
:100070001B0100081B0100081B0100081B010008F0
:100080001B0100081B0100081B0100081B010008E0
:100090001B0100081B0100081B0100081B010008D0
:1000A0001B0100081B0100081B0100081B010008C0
:1000B0001B0100081B010008000000001B010008D4
:1000C0001B01000800000000000000001B010008E8
:1000D00000000000091900081B01000800000000D2
:1000E0001B0100081B0100081B010008DFF80CD0F1
:1000F00000F090FA00480047051A0008800400202C
:100100000648804706480047FEE7FEE7FEE7FEE7B1
:10011000FEE7FEE7FEE7FEE7FEE7FEE7BD160008A6
:10012000ED000008202A04DB203A21FA02F0002129
:10013000704721FA02F3D040C2F1200291400843F7
:1001400019467047D2B201E000F8012B491EFBD2DC
:1001500070470022F6E710B513460A4604461946D2
:10016000FFF7F0FF204610BD421C10F8011B0029CC
:10017000FBD1801A70472DE9FE4F804681EA0300CB
:10018000C00F0C46009021F0004123F00045B8EB71
:100190000200A94105D24046214690461C460B4626
:1001A000024623F00040104347D0270DC7F30A0052
:1001B000C3F30A510290401A019040286BDAC3F34E
:1001C000130040F4801B0098924620B10023D2EB2C
:1001D000030A63EB0B0B01985946C0F140025046ED
:1001E00000F09AF906460D4650465946019A00F02D
:1001F000A2F910EB08006141002487EA115284EA59
:10020000E7731A4340D0009A62B3019A012A4FEA79
:10021000075215DC001B61EB02014FF0004202EABD
:100220000752CDE90042001C41F5801132462B46B1
:1002300000F0A2F903B0BDE8F08F40462146F9E78F
:10024000001B61EB0201001C41F5801300185B41AB
:100250002018A2F5001747EB030140EAD570B61944
:100260006D4111E06D084FEA360645EAC0754FEA68
:100270000752001B61EB0201001C41F58011490887
:100280004FEA30000019514132462B4603B0BDE819
:10029000F04F00F062B90098012240000023D0EB3B
:1002A000020263EBE073009821464FEAE074B8EB7A
:1002B000000061EB0401E9E783F000435BE781F0B4
:1002C000004158E72DE9FE4F81EA030404F00044A1
:1002D00021F0004100944FF0000B23F0004350EA5E
:1002E00001045ED052EA03045BD0C3F30A54C1F3A5
:1002F0000A552C44A4F2F3340194A0FB0254C1F338
:10030000130141F48011C3F3130343F4801301FB81
:10031000024400FB034E840A970A44EA815447EAE8
:100320008357A4FB076802958D0A05FB07854FEAF2
:10033000932C04FB0C542705029D4FEA065847EA0C
:100340001637B5EB08056EEB070C870E920E47EAE1
:10035000811742EA8312A7FB0201B6EB0B0164EBA3
:1003600000042B0D43EA0C335E1844EB1C50DA46B4
:100370005146E7FB0201C5F313044FEA0B3343EA8E
:1003800014534FEA0432019C43EA0603A4F10C041F
:100390000294009CCDE900B400F0EEF803B0BDE893
:1003A000F08F00200146F9E72DE9F04D81EA0304C2
:1003B00004F0004B21F0004514464FF0000A23F0F2
:1003C000004150EA050220D054EA01021DD0C5F3D5
:1003D0000A570246C5F31303C1F31300C1F30A56CB
:1003E00040F4801543F48013A7EB0608101BD64693
:1003F00008F2FD3873EB050002D308F1010801E0B3
:1004000092185B41B8F1000F03DA00200146BDE805
:10041000F08D00204FF48011064684460EE0171B35
:1004200073EB050705D3121B63EB050306434CEA88
:10043000010C49084FEA300092185B4150EA01076D
:10044000EDD152EA030012D082EA040083EA0501EA
:10045000084305D0101BAB4106D20122002306E061
:1004600000224FF0004302E06FF0010253101AEB3C
:1004700006004CEB085110EB0A0041EB0B01BDE804
:10048000F04D00F06AB80EB5C10F80EAE070084484
:10049000CA07002140F233438DE80E000A460B469E
:1004A00000F06AF803B000BD70B5C1F30A5201F064
:1004B00000450024C1F3130140F2FF3341F48011E1
:1004C0009A4201DA002070BD40F233439A42A2F210
:1004D000334203DC5242FFF725FE00E090402C43FC
:1004E000F1D0404270BD000030B5041E71F100042F
:1004F00004DB4FF00044404264EB0101141E73F131
:10050000000405DB1C464FF00043524263EB04033A
:10051000994208BF904230BD202A04DB203A00FAFD
:1005200002F1002070479140C2F1200320FA03F34A
:10053000194390407047202A06DBCB17203A41FA36
:1005400002F043EAE07306E041FA02F3D040C2F160
:100550002002914008431946704710B5141E73F1EC
:10056000000408DA401C41F1000192185B411A4373
:1005700001D120F0010010BD2DE9F04D92469B46BF
:1005800011B1B1FA81F202E0B0FA80F22032904665
:10059000FFF7C2FF04460F4640EA0A0041EA0B019A
:1005A00053465A46084313D0114653EA010019D066
:1005B000C8F140025046FFF7B5FD05460E465046CD
:1005C00059464246FFF7A8FF084305D0012004E042
:1005D00020463946BDE8F08D0020054346EAE07626
:1005E0002C4337430A986305E40AA0EB0800002275
:1005F000FD0A44EA47540A3002D500200146E9E7E3
:10060000010510196941DDE9084500196941BDE896
:10061000F04DA2E7064C074D06E0E06840F001030C
:1006200094E8070098471034AC42F6D3FFF762FD18
:10063000D81B0008F81B0008FEE77047012000F0F7
:1006400093B810B590F821100022022905D004219A
:10065000816380F82020012010BD01680B6823F021
:100660000E030B6001680B6823F001030B6090F828
:100670004030C46B012101FA03F3636080F821105C
:1006800080F82020104610BD10B590F821100024ED
:10069000022903D00421816301243DE001680A6836
:1006A00022F00E020A6001680A6822F001020A6064
:1006B0001A4A0168914201D1012121E0174A1432FE
:1006C000914201D110211BE0144A2832914201D1FC
:1006D000891515E0114A3C32914201D189140FE08D
:1006E0000E4A5032914202D14FF4803108E00B4A59
:1006F0006432914202D14FF4801101E04FF08071D9
:10070000064A083A5160012180F82110002180F842
:100710002010416B01B18847204610BD08000240FF
:1007200070B5044600F016F90546601C02D0044876
:100730000078044400F00EF9401BA042FAD370BDCB
:100740002C00002010B50221054800F0F9F80549F9
:100750000028886801D0401E00E0401C886010BD61
:100760000008014018000020044910B50A68024240
:1007700002D00860FFF7E6FF10BD0000140401403E
:100780002DE9F84FDFF89C91002409F1040A0AF1E1
:10079000040B23460F270BF1040EBBE00125A540F7
:1007A0002A40AA4276D1DFF880C14E68A6EB0C0839
:1007B00066452BD00DDC032E34D005DC36B3012E7C
:1007C00019D0022E2FD11BE0112E16D0122E2AD1B5
:1007D00019E0B8F5881F19D006DCB8F5803F15D0B0
:1007E000B8F5801F1FD111E0B8F5001F0ED0B8F585
:1007F000041F18D10AE0CB6815E0CB681B1D12E07E
:10080000CB6808330FE0CB680C330CE08B682BB15E
:10081000012B4FF0080303D0456104E0042302E0FC
:10082000056100E00023FF2A01D8064601E000F13F
:1008300004064FEA840501D9A5F12005D6F8008009
:1008400007FA05FC28EA0C0803FA05F548EA05084A
:10085000C6F800804D68ED005BD5344DAE6946F0BA
:100860000106AE61AD6924F0030605F001050095AF
:100870002F4D06EB050CDCF80850A607360F07FADB
:1008800006F825EA0805DFF8AC80404503D14FF0B3
:10089000000810E03DE0DFF8A080404502D14FF0B5
:1008A000010808E0DFF89480404502D14FF00208CB
:1008B00001E04FF0030808FA06F848EA0508CCF80A
:1008C00008804D68D9F80060ED034D4601D5164308
:1008D00000E096432E604D68DAF80060AD0355469F
:1008E00001D5164300E096432E604D68DBF80060AA
:1008F000ED025D4601D5164300E096432E604D683B
:10090000DEF80060AD02754601D5164300E096435F
:100910002E60641C0A6832FA04F57FF43FAFBDE82C
:10092000F88F000000040140000011100010024088
:100930000000014000080140000C0140001001408F
:100940008068084000D0012070470AB101617047FB
:100950000904FBE701488068704700002C00002074
:100960000248816802781144816070472C000020A1
:10097000074810B5016841F010010160032000F044
:1009800075F8002000F006F800F024F8002010BDF3
:100990000020024070B50D4D04464FF47A7128785E
:1009A000B1FBF0F00A490968B1FBF0F000F0ECFA95
:1009B00048B9102C07D200222146501E00F036F80C
:1009C00000206C6070BD012070BD00002C00002074
:1009D000380000200C4808B5816941F001018161AF
:1009E000816901F001010091C16941F08051C1614B
:1009F000C06900F0805000900448416821F0E06137
:100A000041F00071416008BD00100240000001404B
:100A1000002809DB00F01F020121914040098000FD
:100A200000F1E020C0F8001170470000F0B40E4B58
:100A30001B680C46C3F30223C3F10705042D00D93C
:100A40000425191D072901D2002300E0DB1E012621
:100A500006FA05F1491E214099409E40761E164037
:100A60003143F0BC00F057BF0CED00E0064900F048
:100A7000070208684FF6FF03184040EA0220034AC5
:100A800010430860704700000CED00E00000FA051C
:100A90002DE9F0470F46050061D0434E306800F065
:100AA0000700B84209D2306820F0070038433060B0
:100AB000306800F00700B84251D128683B4C8107EC
:100AC00012D5400703D5606840F4E0606060287884
:100AD000000703D5606840F4605060606068A968F2
:100AE00020F0F000084360602878C00728D06868CC
:100AF000012810D02168022810D0890700292EDA99
:100B0000616821F0030101436160FFF723FF804624
:100B100041F288390DE021688903EFE78901EDE7AB
:100B2000FFF718FFA0EB0801494502D90320BDE8F3
:100B3000F0876068696800F00C00B0EB810FEFD1BE
:100B4000306800F00700B8420BD9306820F0070089
:100B500038433060306800F00700B84201D001200F
:100B6000E5E72878400705D56068E96820F4E0608B
:100B7000084360602878000706D56068296920F47A
:100B8000605040EAC100606000F038F86168084ACF
:100B9000C1F30311515CC84006490860064800686B
:100BA000FFF7F8FE0020C2E70020024000100240DC
:100BB000C01B000838000020300000200448054910
:100BC00000684968044AC1F30221515CC84070477B
:100BD0003800002000100240D01B000804480549DE
:100BE00000684968044AC1F3C221515CC84070479B
:100BF0003800002000100240D01B000812A185B070
:100C00000FC98DE80F0014A0144A006804905168C1
:100C1000134801F00C03042B10D0082B0ED1C1F3A4
:100C20008343C9031DF803000AD5516804AAC1F320
:100C30004041515C0A4A5043B0FBF1F005B07047A7
:100C400008494843FAE700000203040506070809BB
:100C50000A0B0C0D0E0F10100102000000100240D4
:100C600000127A0000093D002DE9F84F040070D011
:100C70002078C04DC00749D06868C0F381000128C2
:100C800007D06868C0F38100022809D16868C003F2
:100C900006D52868800339D560680028E7D035E09C
:100CA0006068B0F5803F0BD010B1B0F5A02F11D027
:100CB000286820F480302860286820F4802002E032
:100CC000286840F480302860606890B1FFF742FEE9
:100CD00006460AE0286840F480202860F0E700BF5C
:100CE000FFF738FE801B642873D828688003F7D587
:100CF0000CE0FFF72FFE064605E000BFFFF72AFED7
:100D0000801B6428F0D828688003F7D420789A4E96
:100D100080074FF001094FF0000839D5686810F0DE
:100D20000C0F07D06868C0F38100022809D16868F9
:100D3000C00306D42868800714D52069012808D18B
:100D400010E02069B0B1C6F80090FFF703FE074637
:100D500005E00AE1FFF7FEFDC01B0228C4D82868A1
:100D60008007F7D52868616920F0F80040EAC100E3
:100D700028600DE0C6F80080FFF7ECFD074604E0B0
:100D8000FFF7E8FDC01B022823D828688007F7D4A6
:100D9000207800072CD57948A169D9B1C0F8009016
:100DA000FFF7D8FD074604E0FFF7D4FDC01B02287B
:100DB0000FD8686A8007F7D571484FF4FA51006878
:100DC000B0FBF1F0009000BF0098411E0091FAD2F4
:100DD0000EE080E0C0F80080FFF7BCFD074604E0AD
:100DE000FFF7B8FDC01B022875D8686A8007F7D4E2
:100DF0002078400760D5E8690027C00008D4E8697A
:100E000040F08050E861E869012700F080500090D0
:100E10005C480168C90513D40168834641F48071B8
:100E20000160FFF797FD824606E000BFFFF792FDE5
:100E3000A0EB0A0064284ED8DBF80000C005F5D509
:100E4000E06801280AD008B1052813D0286A20F0EC
:100E500001002862286A20F0040002E0286A40F0BD
:100E600001002862E06841F2883B98B1FFF772FD0B
:100E700082460BE0286A40F004002862EEE700BFDB
:100E8000FFF768FDA0EB0A0159455AD8286A800788
:100E9000F6D50CE0FFF75EFD824605E0FFF75AFD50
:100EA000A0EB0A0159454CD8286A8007F6D41FB137
:100EB000E86920F08050E861E06988B36968C1F3AF
:100EC0008101022944D00228C6F8608004D0FFF7CF
:100ED00041FD044638E034E0FFF73CFD074604E0FE
:100EE000FFF738FDC01B02282BD828688001F7D4F3
:100EF000206AB0F5803F05D16868A16820F4003011
:100F000008436860D4E908010843696821F4741152
:100F100008436860C6F86090FFF71CFD044606E0D1
:100F200025E000BFFFF716FD001B022809D828683E
:100F30008001F7D51BE000BFFFF70CFD001B022866
:100F400002D90320BDE8F88F28688001F4D40EE0B0
:100F50000128F7D06868226A00F48031914204D1F8
:100F6000616A00F47010884201D00120EAE7002095
:100F7000E8E70000001002400000424280044242C4
:100F8000380000200070004010B5401EB0F1807F96
:100F900001D3012010BD4FF0E02460610F216017E4
:100FA00000F0B9FC0020A06107202061002010BDE6
:100FB00070477047F8B5026804461068D1685369F5
:100FC00010F00F0F4FF0000554D003F0010601F4AC
:100FD000907737435FD0C20705D0CA0503D5226C8E
:100FE00042F001022264420705D5DA0703D0226CE1
:100FF00042F002022264820705D5DA0703D0226C90
:1010000042F004022264020707D501F020023243B5
:1010100003D0226C42F008022264226C002A35D0F0
:10102000800604D5880602D5204600F068FB2068BB
:101030004069216CC0F3801001F008010143204693
:1010400025D000F044FB2068416949061BD5416961
:1010500021F040014161A06BA8B158494163A06BE8
:10106000FFF712FB002811D0A06B416B01B0BDE867
:10107000F040084783060ED58B060CD52046BDE808
:10108000F84000F03CBB2046FFF793FFF8BDFFF7A8
:1010900090FF2564F8BD266B2023012E52D1C60691
:1010A00050D5CE064ED51068506800905069400665
:1010B0002AD5A16B086840680004000CEAD0A68D10
:1010C0008642E7D9E0858869202818D0D06820F4C6
:1010D0008070D0602068416921F001014161206881
:1010E000416921F04001416184F83E302563206868
:1010F000C16821F01001C160A06BFFF7A2FAA08DBA
:10110000E18D401A81B219E0A08DE18D401A81B2C3
:10111000E08D0028BED00029BCD0D06820F49070AB
:10112000D0602068426922F00102426184F83E30BA
:1011300025632068C26822F01002C2602046FFF7D3
:1011400037FFF8BD05062BD50D0629D594F83D00CF
:101150002128F6D1A068B0F5805F01D12069B0B137
:10116000206A411C2162216800784860E08C401EA2
:101170000004000CE084E4D12068C16821F0800103
:10118000C1602068C16841F04001C160F8BD206ABB
:101190000088C0F308005060206A801C2062E5E7E8
:1011A0004006F3D54806F1D5D168204621F040012C
:1011B000D16084F83D3000F00AF9F8BDBF16000890
:1011C00070B5040004D094F83D00002510B106E08D
:1011D000012070BD84F83C50204600F023F8242004
:1011E00084F83D002068C16821F40051C1602046A8
:1011F00000F0E0FA2068016921F490410161206863
:10120000416921F02A0141612068C16841F400511F
:10121000C1602564202084F83D0084F83E00002051
:1012200070BD000030B585B0002400940194029494
:1012300003940068184988422CD11848816941F408
:1012400080418161816901F480410491816941F0AB
:10125000040181618069124D00F0040004904FF494
:1012600000700090022001900320039069462846F8
:10127000FFF786FA2815CDE900046946284602944E
:10128000FFF77EFA002211462520FFF7CFFB25202D
:10129000FFF7BEFB05B030BD003801400010024032
:1012A0000008014090F83E30202B0ED159B152B1C8
:1012B00090F83C30012B08D0012380F83C3000230B
:1012C000036300F0D3BA012070470220704700008A
:1012D00070B500680E49884219D103220D490E48A5
:1012E000FFF7E0FF00200B4A0A4B0C3A0146144678
:1012F00050605D5C665C303D05FB0600491C0329BF
:10130000F7DB4FF496715060884200DD516070BD8C
:1013100000380140240000203C0000202DE9F84363
:10132000044690F83D001F4616460D4620284CD135
:10133000C5B1BEB194F83C00012846D0012084F824
:101340003C004FF00008C4F84080212084F83D00A4
:10135000FFF700FBA6848146E684A068B0F5805FB5
:1013600003D004E00120BDE8F883206928B12E46AF
:101370005FF0000584F83C800EE00026FAE780214B
:10138000204600F08EFAA0B9AEB116F8010B216824
:101390004860E08C401EE084E08C4B464FF0000239
:1013A00000970028EBD14FF04001204600F079FA79
:1013B00030B10320D7E735F8020BC0F30800E6E7A9
:1013C000202084F83D000020CDE70220CBE77047C5
:1013D000FEE710B500F018F8332000F0EBFA3220E9
:1013E00000F0E8FA282000F0E5FA012000F0E2FA27
:1013F0000C2000F0DFFABDE81040062000F0DABA59
:10140000012000F0D7BA0000F0B585B02B480025C8
:101410000295816941F004018161816901F0040153
:101420000491816941F008018161816901F008013D
:101430000491816941F0100181618069012400F00B
:10144000100004901020CDE900041D4F03266946CA
:1014500003963846FFF794F940208DE871006946FD
:101460003846FFF78DF920208DE87100694638462F
:10147000FFF786F9002220213846FFF766FA01AA15
:10148000009482E8700069463846FFF779F9022037
:101490008DE8710069463846FFF772F904208DE83F
:1014A000710069463846FFF76BF908208DE8710036
:1014B00069463846FFF764F905B0F0BD00100240F8
:1014C000000C014031B14030C0B240F0800000BF9C
:1014D00000F070BA40F08000FAE700002DE9FF5FED
:1014E0002E4D07004FF0000634462846EA4604D544
:1014F0002D2101268DF800107F4280463846FEF7E8
:10150000C2FF8B4681464846594622462B46FEF787
:10151000EBFF08D80022434620462946FEF7D2FEBC
:1015200004460D46EFE7C34600225B4620462946A7
:10153000FEF73AFF04460D463846FEF7A4FF8946FB
:10154000074622462B46FEF72FFFFEF7ADFF8046EB
:10155000FEF799FF22462B46FEF7B4FE3A464B466D
:10156000FEF7ADFEFEF7A0FF074608F130000AF8CF
:101570000600D04600220A4B20462946761CFEF77C
:10158000B3FFD1D30024454603E0285D00F026FADE
:10159000641CB442F9DBBDE8FF9F0000000024405A
:1015A0000000F03F70B50546002404E0285D00F01F
:1015B00015FA641CE4B22846FEF7D6FDA042F5D821
:1015C00070BD0000F0B585B000242048029403945B
:1015D000816941F004018161816901F00401049194
:1015E000816941F0080181618069012500F00800EE
:1015F00004901748174FCDE9005069463846FFF769
:10160000BFF80226CDE90064694638460294FFF728
:10161000B7F80C20CDE90005CDE902466946384609
:10162000FFF7AEF87F20CDE90005CDE90246694617
:101630000948FFF7A5F8002211460620FFF7F6F942
:101640000620FFF7E5F905B0F0BD000000100240EC
:101650000000111000080140000C0140FEE7FEE709
:1016600070477047FFF77CB910B590B028216846E5
:10167000FEF76FFD14210AA8FEF76BFD0220009013
:101680000120049010200024059007946846FFF77D
:10169000EBFA08B172B6FEE70F20CDE90A044FF469
:1016A0008060CDE90C4000210AA80E94FFF7F0F904
:1016B000002801D072B6FEE710B010BD704710B51B
:1016C000406A0021C185C184FFF773FC10BD016829
:1016D000CA6822F49072CA6001684A6922F0010265
:1016E0004A61016B012904D10168CA6822F0100225
:1016F000CA60202180F83E1000210163704708B5C0
:1017000090F83E10222901D0022008BD82684FF4D3
:1017100080539A4201D1016921B1816A9A421BD05A
:101720004AB10AE00268816A5268C2F308020A807C
:10173000816A891C08E0026972B10268526802F08D
:101740007F020A70816A491C8162C18D491E0904A9
:10175000090CC18503D019E002685268F1E70168FD
:10176000CA6822F02002CA600168CA6822F4807246
:10177000CA6001684A6922F001024A61202180F8AA
:101780003E10016B012903D0FFF7A2FD002008BD28
:10179000002101630168CA6822F01002CA60016872
:1017A0000A68D20602D50A6849680091818DFFF760
:1017B000FFFBEBE770B5044600680169E26821F4BD
:1017C0004051114301612169A068084361690843E0
:1017D0002168CA6841F20C639A430243CA602068D8
:1017E0004169A26921F44071114341611E49206899
:1017F000884202D1FFF7F2F901E0FFF7DFF900EBD1
:10180000C00101EB0012606864218000B2FBF0F3BC
:10181000B3FBF1F36FF018067343B2FBF0F5B2FBC4
:10182000F0F605EB8305322303EB0515B5FBF1F567
:10183000B6FBF1F605F0F00505EB0615B2FBF0F688
:10184000B2FBF0F0B0FBF1F06FF01802504306EB82
:10185000800003EB0010B0FBF1F0216800F00F00F6
:101860002844886070BD0000003801408162828594
:10187000C28500210164222280F83E2080F83C10BD
:101880000168CA6842F48072CA6001684A6942F01D
:1018900001024A610068C16841F02001C160002076
:1018A00070472DE9F041984617460E460446069DBE
:1018B0001DE0681C1BD02DB1FFF74CF8A0EB080011
:1018C000A84214D92068C16821F4D071C160206891
:1018D000416921F001014161202084F83D0084F834
:1018E0003E00002084F83C000320BDE8F081206821
:1018F000006836EA000004D00020B842D9D00020A9
:10190000F3E70120F9E700000148FFF753BB0000AF
:101910003C000020FEE70907090E002804DB00F167
:10192000E02080F80014704700F00F0000F1E02084
:1019300080F8141D704702E008C8121F08C1002A71
:10194000FAD170477047002001E001C1121F002A40
:10195000FBD170472DE9F041144D0F46804600241D
:1019600005F108060EE000BF28FA04F0C00735F8BC
:10197000141056F8240017D05FF00102FEF7E5FFBF
:10198000641CE4B2BC42EFD3094C01224021204642
:10199000FEF7DBFF0120FEF7C3FE2046BDE8F04165
:1019A00000224021FEF7D1BF0022E7E7000000201F
:1019B000000C014010B50446002210210648FEF735
:1019C000C4FF20090421FFF7C5FF04F00F00BDE8A4
:1019D00010400421FFF7BEBF000C014010B50446C3
:1019E000012210210648FEF7B0FF20090421FFF76D
:1019F000B1FF04F00F00BDE810400421FFF7AABFBB
:101A0000000C014086B0FEF7B3FFFFF72DFEFFF795
:101A1000D9FD5C485A49002401604FF41651C0E9D1
:101A200001140C21C460C0E904418461C461FFF762
:101A3000C7FB08B172B6FEE7FFF7CBFCFFF7C9FCA6
:101A400000210846FFF73EFD4FA0FFF7ABFD4FF426
:101A50007A70FEF765FEFFF7D3FC03224C49494834
:101A6000FFF720FCA0464A4C00210C3C0846C4F875
:101A70000880FFF727FD47A0FFF794FD0121002014
:101A8000FFF720FD44A0FFF78DFD44A1454AD1E9B1
:101A90000001CDE9000107CA0DF10809424F89E8AC
:101AA00007006E4600210320FFF70CFD6068FFF77A
:101AB00015FD3EA0FFF776FD01210320FFF702FD93
:101AC000A068FFF70BFDA568002D01DAC4F80880B7
:101AD00036A0FFF767FD00204FEA090151F82030DA
:101AE00095FBF3F23032D2B23254C2F1300202FB33
:101AF0000355401C0328F1DBD4E9010181420CDAD3
:101B000032208DF80300012204213846FEF71DFF24
:101B1000002208213846FEF718FFD4E9010181426E
:101B20000CDD31208DF80300002204213846FEF739
:101B30000CFF012208213846FEF707FFD4E9010116
:101B400081420CD130208DF8030000220421384658
:101B5000FEF7FBFE002208213846FEF7F6FE0025C0
:101B60000A23705D8DF81400012205A90548FFF7CE
:101B7000D5FB6D1C052DF3DB6420FEF7D1FD91E74D
:101B8000003801403C00002048454C4C4F0000000C
:101B9000240000205350000043500000303030300B
:101BA0007C000000B41B00080008014020636D2089
:101BB00020000000640000000A0000000100000096
:101BC00000000000000000000102030406070809ED
:101BD0000000000001020304F81B000800000020C0
:101BE0003C00000036190008341C00083C000020AE
:101BF0004404000046190008010002000400080027
:101C0000000C0140000C0140000C0140000C0140A0
:101C1000640A010000000000000000000000000055
:101C200000000000010000001000000000000000A3
:041C30000024F40098
:04000005080000ED02
:00000001FF
